:1000000012C02CC02BC02AC029C028C027C026C0BF
:1000100025C024C023C022C021C020C01FC01EC0D4
:100020001DC01CC01BC011241FBECFE5D4E0DEBF25
:10003000CDBF10E0A0E6B0E0EAEFF8E002C0059026
:100040000D92A237B107D9F710E0A2E7B0E001C0E6
:100050001D92A239B107E1F739D14DC4D1CF89E062
:100060008EBD80E29EE49BBD8ABD81B3806681BB6C
:100070008CE982BB84B38F6084BB8FEF87BB08950C
:10008000A498A598AC98AD9808950F931F93CF931B
:10009000DF93EC018B01F4DF20918800722F7095C3
:1000A00040E031E060E050E0FDE0EEE384B3822B1D
:1000B00084BB000000000000000084B3872384BBE1
:1000C0008F2F8A95F1F783B39E2F9A95F1F784FDD0
:1000D000632B85FD532B4F5F483011F0330FE6CF74
:1000E00085B3822B85BB84B3282B24BB6883F8019E
:1000F0005083DF91CF911F910F91089584B3209188
:100100008800822B84BB94E0892F8A95F1F785B310
:10011000822B85BB9A95F1F7B3DF89E48A95F1F7D5
:100120000895EF92FF920F931F93082FA9DF10E01D
:1001300090E5E92E84E0F82E00FF02C0DFDF0FC05B
:1001400084B390918800892B84BB8E2D8A95F1F71A
:1001500085B3892B85BB8F2D8A95F1F791DF1F5FC2
:10016000183011F00695E8CF85B390918800892B5F
:1001700085BB84B3892B84BB1F910F91FF90EF90B7
:1001800008957EDF80E380938800A49AA59A80EE8C
:1001900091E00197F1F7A498A59880E58A95F1F789
:1001A00083B3982F84FF05C080E2809388009598E0
:1001B000969895FF05C0809188008F7D8093880078
:1001C00020918800222399F084EA91E00197F1F7C9
:1001D00083B384FD05C02F7E209388009598969860
:1001E00085FD05C0809188008F7D80938800909167
:1001F0008800992319F410928700089585B3892BFC
:1002000085BB84B3892B84BB0895DF93CF9300D043
:1002100000D0CDB7DEB797FD02C030E004C09095A6
:1002200081959F4F31E0EAE6F0E0DE0111964081D2
:10023000518120E066277727641B750B03C02F5F71
:10024000860F971F84179507D4F72D93329620E0D9
:10025000E237F20761F79A81992369F0E92FF0E01C
:10026000E05AFF4F808180937B00332349F080E484
:1002700080937A0005C0332319F080E480937B00DB
:10028000E981EE2369F0F0E0E05AFF4F808180932E
:100290007A00E92FF0E0E05AFF4F808180937B00E5
:1002A000EB81F0E0E05AFF4F8081806880937C0012
:1002B000EC81F0E0E05AFF4F808180937D000F9049
:1002C0000F900F900F90CF91DF9108952F923F9252
:1002D0004F925F926F927F928F929F92AF92BF9256
:1002E000CF92DF92EF92FF920F931F93CF93DF9302
:1002F000B6DE47DF80918800882351F08CEC11DF57
:100300008EE40FDF80E00DDF80E00BDF8FE709DF99
:10031000EFE7F0E02AE030E040E050E0E199FECF86
:100320003FBB2EBBE09A6DB36083C9010A97059766
:1003300010F4460F511D2031310521F02F5F3F4F42
:100340003196ECCF80918400909185004817590731
:1003500081F081E080938E008EE591E090938000A3
:1003600080937F008AE080938100109282008093C6
:100370008300F89488E181BD89E081BDA8957894D7
:1003800010E020E1B22E90E8A92E8FE7982E01E22E
:10039000802E77247A9405E0B4E06B2EA3E05A2EE9
:1003A000F6E9DF2EE2E04E2ECC24C39478EC372E13
:1003B00060EDE62E67E0F62E58E0252E08B604FE26
:1003C000FDCFB8BEA89510927A0010927B001092D3
:1003D0007C0010927D00909191009923F1F1809121
:1003E0007E0080FF28C0913041F488E780937B0035
:1003F00083E680937C0089E306C0923039F481EB78
:1004000080937B0086EF80937D0043C0933009F09A
:1004100040C080918200882349F089E780937B0067
:100420008FE380937C001092820033C081EB809335
:100430007B008FEBE8CF913029F480917F00909181
:10044000800026C0923019F48091810004C093305E
:1004500001F58091830090E01BC080918E0088237D
:1004600039F089E780937B0080937C0083E7CBCFD2
:100470008091880084FD08C080E480937A00809396
:100480007B0080937C00BFCF8091750090917600B7
:10049000BCDE10928900829903C085B3807F02C0C0
:1004A00085B38F6085BBA7BA98BA882D8A95F1F776
:1004B00086B380688F3FD9F1F0927800E0927700A0
:1004C000909174009F5F90937400983019F4809518
:1004D0008093890080918B00981789F510927400A1
:1004E00080918600833358F58F5F80938600823039
:1004F00019F488E280938B0080918600843019F48F
:1005000083E280938B0080918600883019F461E14A
:1005100060938B00809186008E3110F020928B00CA
:1005200080918600823358F000938A0008C0309290
:100530008B00C0928A00109286001092740077BAE5
:10054000F0918900FF2309F4ACC0E0919100EE2303
:1005500009F45EC0AF2FB0E0CD018C709070892B94
:1005600009F456C080917E0080FF04C08E7F809386
:100570007E0097C0E13081F420917F0030918000AF
:10058000849B05C040EB54E06AED7DEF19C047EE57
:1005900053E06DE97FEF14C0E23019F480918100DF
:1005A00009C0E33029F048EC50E020E030E006C01C
:1005B00080918300282F30E048EC50E060E070E04C
:1005C000A2FF0AC080918A00280F311DC90101973E
:1005D000841795070CF09B01A3FF09C080918A0046
:1005E000281B3109C9010196681779070CF4A90184
:1005F000E13029F45093800040937F0009C0E2303D
:1006000019F44093810004C0E33011F44093830057
:10061000F4FF47C0839902C094E001C093E08E2F9D
:100620008F5F80939100891711F4109291001092BE
:10063000850010928400EFE7F0E040E050E0BA015E
:10064000665F7F4F4530510558F4208180918400CA
:1006500090918500820F911D909385008093840076
:100660009081E199FECF7FBB6EBBE09A8DB3891775
:1006700041F0E199FECFA8957FBB6EBB9DBBE29A8E
:10068000E19A4F5F5F4F4730510511F03196D7CF58
:1006900010928E0080917E00816080937E00D092C7
:1006A0008F00E0919000829918C085B3807F85BB50
:1006B000EE2311F4A89A0BC0E13011F4A99A07C0F7
:1006C000E23011F4AA9A03C0E33009F4AB9AF0E0E7
:1006D000E658FF4F8081809516C085B38F6085BB3B
:1006E000EE2311F4A8980BC0E13011F4A99807C0CB
:1006F000E23011F4AA9803C0E33009F4AB98F0E0BB
:10070000E658FF4F808188BB809190008F5F809377
:100710009000843011F4109290008091870088231B
:1007200019F4C092870019C0813049F48CECF9DCCF
:1007300084E4F7DCD09279004092870093C0823045
:1007400041F480917900882309F08CC05092870091
:1007500089C0833021F46092870013DD83C0843028
:1007600039F48CECDEDC8EEBDCDC009387007AC0A5
:10077000853009F077C08CE890E06DE870E085DCAA
:1007800082E790E063E770E080DC80918E00882350
:1007900029F0879903C09598969864C08091880045
:1007A00084FF60C0D0917200C0E080918C0090E026
:1007B0008C2B9D2B9C01220F331F220F331F280FE0
:1007C000391FC90168E070E06FD09B01709376001B
:1007D0006093750080918200882309F140917F0029
:1007E0005091800080918100BA01680F711D261719
:1007F000370714F0959A04C0421753070CF09598E8
:10080000839909C080918300BA01681B710962173E
:1008100073070CF0969A2417350714F120C0409105
:100820007F005091800080918100BA01681B71099E
:100830006217730714F0959A04C0241735070CF05B
:100840009598839909C080918300BA01680F711D42
:10085000261737070CF0969A421753070CF0969814
:10086000109287001F5F10FFA9CD80917900815001
:100870008093790080918F00815080938F0088232E
:1008800029F480917E008E7F80937E008091770096
:10089000909178000197909378008093770097FF6C
:1008A0008DCD109291008ACD97FB092E07260AD094
:1008B00077FD04D00CD006D000201AF47095619515
:1008C0007F4F0895F6F7909581959F4F0895AA1B45
:1008D000BB1B51E107C0AA1FBB1FA617B70710F02B
:1008E000A61BB70B881F991F5A95A9F7809590955D
:0A08F000BC01CD010895F894FFCF7C
:1008FA003F065B4F666D7D077F6FE80364000A0061
:02090A000100EA
:00000001FF
