:1000000012C02CC02BC02AC029C028C027C026C0BF
:1000100025C024C023C022C021C020C01FC01EC0D4
:100020001DC01CC01BC011241FBECFE5D4E0DEBF25
:10003000CDBF10E0A0E6B0E0E6E7F9E002C0059031
:100040000D92A237B107D9F710E0A2E7B0E001C0E6
:100050001D92A239B107E1F739D18BC4D1CF89E024
:100060008EBD80E29EE49BBD8ABD81B3806681BB6C
:100070008CE982BB84B38F6084BB8FEF87BB08950C
:10008000A498A598AC98AD9808950F931F93CF931B
:10009000DF93EC018B01F4DF20918800722F7095C3
:1000A00040E031E060E050E0FDE0EEE384B3822B1D
:1000B00084BB000000000000000084B3872384BBE1
:1000C0008F2F8A95F1F783B39E2F9A95F1F784FDD0
:1000D000632B85FD532B4F5F483011F0330FE6CF74
:1000E00085B3822B85BB84B3282B24BB6883F8019E
:1000F0005083DF91CF911F910F91089584B3209188
:100100008800822B84BB94E0892F8A95F1F785B310
:10011000822B85BB9A95F1F7B3DF89E48A95F1F7D5
:100120000895EF92FF920F931F93082FA9DF10E01D
:1001300090E5E92E84E0F82E00FF02C0DFDF0FC05B
:1001400084B390918800892B84BB8E2D8A95F1F71A
:1001500085B3892B85BB8F2D8A95F1F791DF1F5FC2
:10016000183011F00695E8CF85B390918800892B5F
:1001700085BB84B3892B84BB1F910F91FF90EF90B7
:1001800008957EDF80E380938800A49AA59A80EE8C
:1001900091E00197F1F7A498A59880E58A95F1F789
:1001A00083B3982F84FF05C080E2809388009598E0
:1001B000969895FF05C0809188008F7D8093880078
:1001C00020918800222399F084EA91E00197F1F7C9
:1001D00083B384FD05C02F7E209388009598969860
:1001E00085FD05C0809188008F7D80938800909167
:1001F0008800992319F410928700089585B3892BFC
:1002000085BB84B3892B84BB0895DF93CF9300D043
:1002100000D0CDB7DEB797FD02C030E004C09095A6
:1002200081959F4F31E0EAE6F0E0DE0111964081D2
:10023000518120E066277727641B750B03C02F5F71
:10024000860F971F84179507D4F72D93329620E0D9
:10025000E237F20761F79A81992369F0E92FF0E01C
:10026000E05AFF4F808180937B00332349F080E484
:1002700080937A0005C0332319F080E480937B00DB
:10028000E981EE2369F0F0E0E05AFF4F808180932E
:100290007A00E92FF0E0E05AFF4F808180937B00E5
:1002A000EB81F0E0E05AFF4F8081806880937C0012
:1002B000EC81F0E0E05AFF4F808180937D000F9049
:1002C0000F900F900F90CF91DF9108952F923F9252
:1002D0004F925F926F927F928F929F92AF92BF9256
:1002E000CF92DF92EF92FF920F931F93CF93DF9302
:1002F000B6DE47DF80918800882351F08CEC11DF57
:100300008EE40FDF80E00DDF80E00BDF8FE709DF99
:10031000EFE7F0E080E090E040E050E09C01265FF5
:100320003F4FE199FECF3FBB2EBBE09A2DB3208318
:100330008530910510F4420F511D019687309105CB
:1003400011F03196EBCF8091840090918500481791
:10035000590781F081E080938E008EE591E09093C3
:10036000800080937F008AE0809381001092820059
:1003700080938300F89488E181BD89E081BDA895D0
:10038000789410E020E1322E90E8292E8FE7B82EE5
:1003900001E2A02E99249A9405E0B4E08B2EA3E00C
:1003A0007A2EF6E9DF2EE2E06E2ECC24C39478ECB0
:1003B000572E60EDE62E67E0F62E58E0452E08B683
:1003C00004FEFDCF38BEA89510927A0010927B00F3
:1003D00010927C0010927D0090919100992309F475
:1003E00068C080917E0080FF37C0913041F488E77B
:1003F00080937B0083E680937C0089E309C0923080
:1004000051F481E380937B008EE380937C0089EB41
:1004100080937D006AC0933071F488E380937B0001
:1004200086E780937D0080918200882399F088EB95
:1004300080937B005AC0943009F057C080918200AD
:10044000882329F08CE180937B0088EBE1CF83E265
:1004500080937B0086EFDCCF913029F480917F0080
:100460009091800005C0923029F48091810090E045
:10047000CCDE17C09330A9F480918200882341F02C
:100480008FE380937B0084E780937C0088EB07C038
:1004900086E780937B0087E780937C0081EB8093E5
:1004A0007D0080919100843001F58091830090E07F
:1004B0001BC080918E00882339F089E780937B00F0
:1004C00080937C0083E7A4CF8091880084FD08C0DE
:1004D00080E480937A0080937B0080937C0098CFA7
:1004E000809175009091760090DE1092890082993B
:1004F00003C085B3807F02C085B38F6085BB27BAF8
:10050000B8BA8A2D8A95F1F796B390689F3FE9F1C2
:10051000F0927800E0927700809174008F5F809372
:100520007400883019F4909590938900909174002C
:1005300080918B00981789F5109274008091860045
:10054000833358F58F5F80938600823019F488E2F8
:1005500080938B0080918600843019F483E280932D
:100560008B0080918600883019F481E180938B00A4
:10057000809186008E3110F040928B008091860031
:10058000823358F000938A0008C050928B00C092CA
:100590008A00109286001092740097BA80918900A8
:1005A000882309F4BCC0E0919100EE2309F46CC0EB
:1005B000A82FB0E0CD018C709070892B09F464C035
:1005C00080917E0080FF04C08E7F80937E00A7C054
:1005D000E13081F440917F0050918000849B05C000
:1005E00060EB74E02AED3DEF22C067EE73E02DE989
:1005F0003FEF1DC0E23019F48091810012C0E3305A
:1006000039F480918200482F50E061E070E00DC025
:10061000E43029F068EC70E040E050E006C08091E2
:100620008300482F50E068EC70E020E030E0A2FF4B
:100630000AC080918A00480F511DCA010197861790
:1006400097070CF0A901A3FF09C080918A00481BFD
:100650005109CA010196281739070CF4BA01E13093
:1006600029F47093800060937F000EC0E23019F48B
:100670006093810009C0E33019F46093820004C0E4
:10068000E43011F4609383008091890084FF47C0B7
:10069000839902C095E001C094E08E2F8F5F809314
:1006A0009100891711F41092910010928500109218
:1006B0008400EFE7F0E040E050E0BA01665F7F4F72
:1006C0004530510558F42081809184009091850037
:1006D000820F911D90938500809384009081E19911
:1006E000FECF7FBB6EBBE09A8DB3891741F0E199D5
:1006F000FECFA8957FBB6EBB9DBBE29AE19A4F5F90
:100700005F4F4730510511F03196D7CF10928E00D0
:1007100080917E00816080937E00D0928F00E09176
:100720009000829918C085B3807F85BBEE2311F4B9
:10073000A89A0BC0E13011F4A99A07C0E23011F475
:10074000AA9A03C0E33009F4AB9AF0E0E658FF4FF1
:100750008081809516C085B38F6085BBEE2311F430
:10076000A8980BC0E13011F4A99807C0E23011F449
:10077000AA9803C0E33009F4AB98F0E0E658FF4FC5
:10078000808188BB809190008F5F8093900084303F
:1007900011F41092900080918700882319F4C09280
:1007A000870019C0813049F48CECBBDC84E4B9DCEF
:1007B000D09279006092870093C0823041F480919A
:1007C0007900882309F08CC07092870089C083303B
:1007D00021F480928700D5DC83C0843039F48CEC1E
:1007E000A0DC8EEB9EDC009387007AC0853009F098
:1007F00077C08CE890E06DE870E047DC82E790E03D
:1008000063E770E042DC80918E00882329F08799AD
:1008100003C09598969864C08091880084FF60C05A
:10082000D0917200C0E080918C0090E08C2B9D2BC9
:100830009C01220F331F220F331F280F391FC901BC
:1008400068E070E06FD09B01709376006093750054
:1008500080918200882309F140917F0050918000AF
:1008600080918100BA01680F711D2617370714F0B7
:10087000959A04C0421753070CF09598839909C0C4
:1008800080918300BA01681B7109621773070CF02D
:10089000969A2417350714F120C040917F0050919B
:1008A000800080918100BA01681B7109621773078B
:1008B00014F0959A04C0241735070CF09598839985
:1008C00009C080918300BA01680F711D2617370790
:1008D0000CF0969A421753070CF0969810928700E6
:1008E0001F5F10FF6CCD809179008150809379005B
:1008F00080918F00815080938F00882329F480910C
:100900007E008E7F80937E008091770090917800AA
:100910000197909378008093770097FF50CD1092C5
:1009200091004DCD97FB092E07260AD077FD04D004
:100930000CD006D000201AF4709561957F4F089571
:10094000F6F7909581959F4F0895AA1BBB1B51E127
:1009500007C0AA1FBB1FA617B70710F0A61BB70B2F
:10096000881F991F5A95A9F780959095BC01CD01D4
:060970000895F894FFCF8A
:100976003F065B4F666D7D077F6FE80364000A00E4
:0209860001006E
:00000001FF
